:020000020000FC
:0200000025C019
:020010005AC0D4
:1000400050C040792430191202780010F8940FEF54
:100050000DBF08E00EBF00E80093610004E00093CC
:10006000610003E005BD0CE306BD01E000936E00F6
:1000700000E007B903E008B90FEF04B900E105B9E2
:100080000FEF0AB900E40BB902E00093680003E047
:1000900000936C0021E010E030E040E083E099271D
:1000A000552766277894FFCF2827922F9295912B7A
:1000B00095B994FF362F95FF352FF0E0E2E4E30F7A
:1000C00074917BB908950F930FB70F9306B100FF9A
:1000D000139501FF1A951F7015B90F910FBF0F915E
:1000E00018950F930FB70F934395423351F444275C
:1000F00053955A3031F455276395663011F45527DE
:0E01000066270E9454000F910FBF0F911895B3
:00000001FF
