:020000020000FC
:0200000025C019
:0200100049C0E5
:1000400044C040792430191202780010F8940FEF60
:100050000DBF08E00EBF00E80093610004E00093CC
:10006000610003E005BD0EE106BD01E000936E00F6
:1000700000E007B903E008B90FEF04B900E105B9E2
:100080000FEF0AB900E40BB902E00093680003E047
:1000900000936C0000E00093000150E040E070E34A
:1000A0007894FFCF0F930FB70F9306B11091000113
:1000B00000FF139501FF1A951F7010930001812B0B
:1000C00015B90F910FBF0F9118950F930FB70F939D
:1000D0004395443649F4442783B18727812B85B95A
:1000E00053955A3009F45527F0E0E2E4E50F6491A6
:0A00F0006BB90F910FBF0F91189527
:00000001FF
