:020000020000FC
:0200000025C019
:0200100046C0E8
:100040003CC040792430191202780010F8940FEF68
:100050000DBF08E00EBF00E80093610004E00093CC
:10006000610003E005BD0CE306BD01E000936E00F6
:1000700000E007B903E008B90FE004B900E005B9F2
:100080000FEF0AB900E00BB902E00093680003E04B
:1000900000936C0010E050E040E07894FFCF0F93A5
:1000A0000FB70F9306B100FF139501FF1A951F704C
:1000B00015B90F910FBF0F9118950F930FB70F93AD
:1000C0004395443629F4442753955A3009F455276B
:1000D000F0E0E2E4E50F64916BB90F910FBF0F916F
:0200E000189571
:00000001FF
